:020000020000FC
:1000AC0081BB5F9A33D05F9808955E98F9DF829593
:1000BC00F7DF8DE234D008955E9AF2DF8295F0DF9F
:1000CC008DE22DD0089584E12FD05E9880E3E8DF97
:1000DC008AE02AD080E3E4DF8AE026D080E3E0DF08
:1000EC008AE022D080E2DCDF8DE219D088E2DDDF0D
:1000FC008FE0DBDF81E0D9DF82E016D086E0D5DF50
:10010C0008950000000000000000089500000000A9
:10011C000000000000000000000000000895F1DF66
:10012C008A958030E1F70895282F8AEFF8DF8AEF5F
:10013C00F6DF8AEFF4DF8AEFF2DF2A952030A9F799
:02014C00089514
:1000000000C00FEF0DBF0AE00EBF0E940A000E9461
:10001000690008C000E00DB90FEF0AB907B904B9CB
:1000200000BB08958BE44ED081E44CD089E54AD0E2
:100030008AE348D060E00E943200782F982F7F300A
:10004000D1F380EC860F37D070D0705D872F3AD017
:100050006CD06395613171F36DD00E9432009817B6
:10006000FFCFE0CF20E0322F330F330F330F330FAA
:1000700035B9000000000000000000000000000092
:1000800000000000000000000000669904C02395F5
:0A0090002C3049F72FE0822F08956D
:00000001FF
