:020000020000FC
:0200000038C204
:1000AC008AEF1ED08AEF1CD08AEF1AD08AEF18D0B4
:1000BC008AEF16D08AEF14D00895000000000000DB
:1000CC000000089500000000000000000000000087
:1000DC00000000000895F1DF8A958030E1F7089563
:1000EC00382F8AEFF8DF8AEFF6DF8AEFF4DF8AEF3A
:1000FC00F2DF3A953030A9F7089557656C636F6D50
:10010C006520746F2064696365210000526F6C6C0C
:10011C00696E672E2E2E000050726573732032208C
:10012C00746F20726F6C6C2E2E2E00005468726FE0
:10013C0077733A00537461747320636C65617265F4
:10014C00642100004D6F6E69746F723A000081BBC0
:10015C005F9AB8DF5F9808958591803011F009D0CF
:10016C00FBCF08955E98F3DF8295F1DF8DE2B3DF6C
:10017C0008955E9AECDF8295EADF8DE2ACDF08959C
:10018C0084E1AEDF5E9880E3E2DF8AE0A9DF80E302
:10019C00DEDF8AE0A5DF80E3DADF8AE0A1DF80E240
:1001AC00D6DF8DE298DF88E2DDDF8FE0DBDF81E0F8
:1001BC00D9DF82E095DF86E0D5DF0895E1DF82E0CC
:1001CC00D1DF089520E0322F330F330F330F330F6D
:1001DC0035B98AE085DF669904C023952C3099F7F0
:1001EC002FE0822F08953134372A323538303336A8
:1001FC003923F1E0E2EFE80F80E0F81F84910895D5
:10020C00F1E0E8E1A9DF06E000000000DBDF831786
:10021C0009F008950A95B9F3F7CF436C65617269DB
:10022C006E672E2E2E00546F74616C3A20002320C2
:10023C003127733A200023203227733A20002320E1
:10024C003327733A200023203427733A20002320CD
:10025C003527733A200023203627733A2000C1D06B
:10026C0008953031323334353637383941424344CE
:10027C004546F2E0EEE6582E82958F70E80F662424
:10028C00F61D849176DF852D8F70EEE6F2E0E80F97
:10029C006624F61D84916DDF0895482F483C20F0AC
:1002AC0082E367DF485C08C0443620F081E361DFFD
:1002BC00445602C080E35DDF01E01AE088944117E8
:1002CC0018F00395165FFACF1A50411B4F930A95FD
:1002DC00802F805D4EDF8F91805D4BDF08956EDF48
:1002EC00F2E0E2E339DF80E077D08F93C2DF88E27F
:1002FC0040DF8F91D2DF89E23CDFD2DE5FDFF2E0BC
:10030C00EAE32ADF81E068D08F93B3DF88E231DF44
:10031C008F91C3DF89E22DDFC3DE50DFF2E0E2E430
:10032C001BDF82E059D08F93A4DF88E222DF8F910C
:10033C00B4DF89E21EDFB4DE41DFF2E0EAE40CDF79
:10034C0083E04AD08F9395DF88E213DF8F91A5DF8E
:10035C0089E20FDFA5DE32DFF2E0E2E5FDDE84E0CC
:10036C003BD08F9386DF88E204DF8F9196DF89E2A2
:10037C0000DF96DE23DFF2E0EAE5EEDE85E02CD04E
:10038C008F9377DF88E2F5DE8F9187DF89E2F1DEEC
:10039C0087DE14DFF2E0E2E6DFDE86E01DD08F932D
:1003AC0068DF88E2E6DE8F9178DF89E2E2DE78DED4
:1003BC0005DF089503DFF2E0E6E2CEDE12D0089509
:1003CC00A0E0B2E08F938C9183958C938F91A80FC2
:1003DC008C9183958C930895B2E0A0E0A80F8C913A
:1003EC000895B2E0A0E080E08D93A830E1F7089585
:1003FC004D6F6E69746F72000895E4DE833049F0BE
:10040C008B3039F08F3011F4382EF7CF8315A9F3D8
:10041C00382E08958EE3ADDE8B2F2BDF8A2F29DF4C
:10042C008AE3A7DE0895CADEF3E0ECEF95DE38DE52
:10043C00B0E0A0E0C3DEEEDF8D918F931ADF88E28F
:10044C0098DE8F912ADF89E294DED7DF833051F07A
:10045C008B3029F0CEDE8053B82FAA27EBCF88EC57
:10046C003FDEE8CF08950FEF0DBF0AE00EBF0E94EC
:10047C0042020E94C60008C000E00DB90FEF0AB995
:10048C0007B904B900BB08957BDEF1E0E6E064DE59
:10049C0099DE30E0831751F034E08317A1F038E097
:1004AC008317D1F031E0831701F1F2CF87DEF1E051
:1004BC00E4E252DE80EC56DEA3DE802F81DF21D019
:1004CC0058DEEEDDE1CF7ADEF1E0E8E345DE80ECEC
:1004DC0049DE05DFE5DDD8CF71DEF1E0E0E43CDE9E
:1004EC0080EC40DE67DFDCDDCFCF68DEF1E0E0E5FD
:1004FC0033DE80EC37DE30E0831709F0FCCF93DF7E
:08050C00C3CF802F805D08952C
:00000001FF
