:100000000C9456000C946B000C946B000C946B00D9
:100010000C946B000C946B000C946B000C946B00B4
:100020000C946B000C946B000C946B000C946B00A4
:100030000C946B000C946B000C946B000C946B0094
:100040000C946B000C946B000C946B000C946B0084
:100050000C946B000C946B000C946B000C946B0074
:100060000C946B000C946B000C946B000C946B0064
:100070000C946B000C9404020C946B000C946B00B9
:100080000C946B000C946B000C946B000C946B0044
:100090000C946B000C946B000C946B000C946B0034
:1000A0000C946B000C946B000C946B0011241FBE1D
:1000B000CFEFDAE0DEBFCDBF11E0A0E0B1E0E6EEC9
:1000C000FAE002C005900D92A433B107D9F70E945F
:1000D0000A010C9471050C9400008AEF1ED08AEF7F
:1000E0001CD08AEF1AD08AEF18D08AEF16D08AEF88
:1000F00014D00895000000000000000008950000E2
:100100000000000000000000000000000000089552
:10011000F1DF8A958030E1F70895382F8AEFF8DF14
:100120008AEFF6DF8AEFF4DF8AEFF2DF3A953030BC
:10013000A9F708950E94E0000E94BB010895EF9284
:10014000FF920F931F93CF937C018B01C42F80E00C
:100150000E94B5010E94AD01C7010E94F30160E059
:1001600081E00E94E901C8010E94F301CC2319F04B
:100170008C2F0E946D00CF911F910F91FF90EF90F7
:1001800008953E9AE0E9F0E0808180688083808174
:1001900081608083E1E9F0E08081886080838081F4
:1001A000836080830895109299002FEF829FC00191
:1001B000112464E670E00E94500260939800089554
:1001C0001DB880EF84B908950F931F93CF93DF93E9
:1001D000C0E0D0E085B1282F2F70CE018295929596
:1001E000907F9827807F9827822B85B981E00E9495
:1001F0008D00669B05C0FE01EE5FFE4F808105C04D
:100200002196CC30D10531F780E0DF91CF911F915D
:100210000F910895CF93DF93CDB7DEB7A2970FB6B6
:10022000F894DEBF0FBECDBF0E9419020E949A0053
:100230000E94E0000E94C100F12C6894882481F89B
:1002400099249394B12C0F2EF5E2AF2EF02D0F2EA2
:10025000FFE2CF2EF1E0DF2EF02D8E010E5E1F4F5C
:100260000E94E400E82E81E0F81631F0F816C8F09C
:1002700092E0F91659F13BC00E943C02811106C080
:10028000F92C81E3E81203C0FB2C01C0F82C89E0B3
:10029000EEE0F1E0DE01119601900D928A95E1F712
:1002A00026C092E3E91208C00E943C02803321F488
:1002B0008B2D0E94D300F92C8AE0E7E1F1E0DE010A
:1002C000119601900D928A95E1F711C00E943C02AF
:1002D0000E94D30081E3E81201C0FB2C8EE0E1E232
:1002E000F1E0DE01119601900D928A95E1F70E94EE
:1002F0003C021F92AF921F928F93DF92CF921F9377
:100300000F930E9487024B2DB801CE0101960E94E7
:100310009F000FB6F894DEBF0FBECDBFA1CF91B343
:100320009F70807F892B81BB5F9A0E947F005F98BE
:100330000895CF93C62F811102C05E9801C05E9AC6
:100340008C2F0E948F018C2F8295807F0E948F01BD
:100350008DE20E948800CF91089561E080E00E94C4
:10036000990182E00E948D000895682F6C6080E002
:100370000E949901089580EF80BB80EC8AB984E1E6
:100380000E948D005E9880E30E948F018AE00E94A7
:100390008D0080E30E948F018AE00E948D0080E33F
:1003A0000E948F018AE00E948D0080E20E948F01EE
:1003B0008DE20E94880068E280E00E94990180E05E
:1003C0000E94B5010E94AD0166E080E00E949901A3
:1003D000089520E4829FC00111246068682B80E0AA
:1003E0000E9499010895CF93DF93FC0160816623F9
:1003F00041F0EC01219681E00E949901699161111F
:10040000FACFDF91CF9108951F920F920FB60F92FE
:1004100011248F939F938091790090E09093010134
:10042000809300019F918F910F900FBE0F901F90AE
:100430001895ECE7F0E080818064808380818160A2
:100440008083808180628083EAE7F0E0808187603A
:1004500080838081806280838081886080838081C6
:100460008068808383E080937E001092D800789427
:1004700080818064808308958091000190910101C2
:1004800044E6489F9001499F300D1124A1E8B0E84F
:100490000E946402880F892F881F990B91950895F7
:1004A00097FB072E16F4009407D077FD09D00E9421
:1004B000730207FC05D03EF4909581959F4F0895F7
:1004C000709561957F4F0895A29FB001B39FC001C1
:1004D000A39F700D811D1124911DB29F700D811D70
:1004E0001124911D0895AA1BBB1B51E107C0AA1F2F
:1004F000BB1FA617B70710F0A61BB70B881F991FC5
:100500005A95A9F780959095BC01CD010895AEE06C
:10051000B0E0EDE8F2E00C9448050D891E8986E014
:100520008C831A8309838FEF9FE79E838D83AE01AF
:10053000475E5F4F6F89788DCE0101960E94A902B8
:10054000EF81F885E00FF11F10822E96E4E00C9405
:100550006405ABE0B0E0EFEAF2E00C943A056C0120
:100560007B018A01FC0117821682838181FFCCC145
:10057000CE0101963C01F6019381F70193FD85912F
:1005800093FF81917F01882309F4BAC1853239F440
:1005900093FD859193FF81917F01853229F4B60106
:1005A00090E00E94A004E7CF912C212C312CFFE198
:1005B000F315D8F08B3279F038F4803279F0833249
:1005C000A1F4232D20611DC08D3261F0803369F4C8
:1005D000232D216016C0832D8260382EE32DE46028
:1005E0003E2E2AC0F32DF8601DC037FC2DC020ED33
:1005F000280F2A3040F08E32B9F436FC81C1232D09
:100600002064322E19C036FE06C08AE0989E200D66
:100610001124922E11C0EAE02E9E200D1124222ECC
:10062000F32DF0623F2E08C08C3621F4832D8068B4
:10063000382E02C0883641F4F70193FD859193FF6F
:1006400081917F018111B3CF982F9F7D9554933075
:1006500028F40C5F1F4F9FE399830DC0833631F060
:10066000833771F0833509F059C021C0F8018081CA
:1006700089830E5F1F4F88248394912C530113C0EC
:100680002801F2E04F0E511CF801A080B18036FE27
:1006900003C0692D70E002C06FEF7FEFC5010E94BB
:1006A00095044C018201F32DFF773F2E16C02801DF
:1006B00022E0420E511CF801A080B18036FE03C03A
:1006C000692D70E002C06FEF7FEFC5010E948A04C0
:1006D0004C01F32DF0683F2E820133FC1BC0822DAC
:1006E00090E088169906B0F4B60180E290E00E948E
:1006F000A0042A94F4CFF50137FC859137FE81914F
:100700005F01B60190E00E94A00421102A9421E02C
:10071000821A91088114910471F7E8C0843611F0AF
:10072000893641F5F80137FE07C060817181828109
:1007300093810C5F1F4F08C060817181072E000CF0
:10074000880B990B0E5F1F4FF32DFF763F2E97FFFF
:1007500009C090958095709561957F4F8F4F9F4F01
:10076000F0683F2E2AE030E0A3010E94DC04882ECE
:10077000861845C0853731F4232D2F7EB22E2AE00E
:1007800030E025C0932D997FB92E8F36C1F018F433
:10079000883579F0B5C0803719F0883721F0B0C0BE
:1007A000E92FE061BE2EB4FE0DC0FB2DF460BF2E1C
:1007B00009C034FE0AC0292F2660B22E06C028E0E8
:1007C00030E005C020E130E002C020E132E0F80175
:1007D000B7FE07C060817181828193810C5F1F4FDA
:1007E00006C06081718180E090E00E5F1F4FA30121
:1007F0000E94DC04882E8618FB2DFF773F2E36FEE4
:100800000DC0232D2E7FA22E891458F434FE0BC068
:1008100032FC09C0832D8E7EA82E05C0B82CA32CD7
:1008200003C0B82C01C0B92CA4FE0FC0FE01E80D16
:10083000F11D8081803321F49A2D997EA92E09C063
:10084000A2FE06C0B394B39404C08A2D867809F042
:10085000B394A3FC11C0A0FE06C0B21488F4280C07
:10086000922C9B180EC0B21460F4B60180E290E0A6
:100870000E94A004B394F7CFB21418F42B1802C04E
:10088000982C212CA4FE10C0B60180E390E00E94B9
:10089000A004A2FE17C0A1FC03C088E790E002C03C
:1008A00088E590E0B6010CC08A2D867859F0A1FE4B
:1008B00002C08BE201C080E2A7FC8DE2B60190E0AD
:1008C0000E94A004891438F4B60180E390E00E94ED
:1008D000A0049A94F7CF8A94F301E80DF11D80816A
:1008E000B60190E00E94A0048110F5CF222009F407
:1008F00042CEB60180E290E00E94A0042A94F6CF96
:10090000F6018681978102C08FEF9FEF2B96E2E17F
:100910000C945605FC010590615070400110D8F709
:10092000809590958E0F9F1F0895FC016150704037
:1009300001900110D8F7809590958E0F9F1F089514
:100940000F931F93CF93DF93FB01238121FD03C0FE
:100950008FEF9FEF2CC022FF16C046815781248164
:1009600035814217530744F4A081B1819D012F5F67
:100970003F4F318320838C93268137812F5F3F4FF8
:100980003783268314C08B01EC01FB010084F185C1
:10099000E02D0995892BE1F6D80116968D919C9151
:1009A0001797019617969C938E931697CE01DF9119
:1009B000CF911F910F910895FA01AA27283051F184
:1009C000203181F1E8946F936E7F6E5F7F4F8F4F80
:1009D0009F4FAF4FB1E03ED0B4E03CD0670F781FDF
:1009E000891F9A1FA11D680F791F8A1F911DA11DC4
:1009F0006A0F711D811D911DA11D20D009F46894FD
:100A00003F912AE0269F11243019305D3193DEF6A4
:100A1000CF010895462F4770405D4193B3E00FD05A
:100A2000C9F7F6CF462F4F70405D4A3318F0495D45
:100A300031FD4052419302D0A9F7EACFB4E0A69528
:100A40009795879577956795BA95C9F7009761054A
:100A5000710508959B01AC010A2E069457954795A0
:100A600037952795BA95C9F7620F731F841F951F95
:100A7000A01D08952F923F924F925F926F927F92A6
:100A80008F929F92AF92BF92CF92DF92EF92FF929E
:100A90000F931F93CF93DF93CDB7DEB7CA1BDB0B4A
:100AA0000FB6F894DEBF0FBECDBF09942A883988EF
:100AB00048885F846E847D848C849B84AA84B984F6
:100AC000C884DF80EE80FD800C811B81AA81B98102
:100AD000CE0FD11D0FB6F894DEBF0FBECDBFED0116
:060AE0000895F894FFCF19
:100AE600DD003134372A32353830333639234D4F2D
:100AF600544F52204F4E004D4F544F52204F4646B2
:100B0600004D4F544F522052554E4E494E470025E8
:040B160075256300DE
:00000001FF
