S01000006C6162345F365F312E737265638C
S11300000C9456000C9473000C9473000C947300BD
S11300100C9473000C9473000C9473000C94730090
S11300200C9473000C9473000C9473000C94730080
S11300300C9473000C9473000C9473000C94730070
S11300400C9473000C9473000C9473000C94730060
S11300500C9473000C9473000C9473000C94730050
S11300600C9473000C9473000C9473000C94730040
S11300700C9473000C9473000C9473000C94730030
S11300800C9473000C9473000C9473000C94730020
S11300900C9473000C9473000C9473000C94730010
S11300A00C9473000C9473000C94730011241FBE01
S11300B0CFEFDAE0DEBFCDBF11E0A0E0B1E0E4E1D4
S11300C0F2E002C005900D92A030B107D9F721E00B
S11300D0A0E0B1E001C01D92A030B207E1F70E9498
S11300E0AB000C9408010C9400008AEF1ED08AEF38
S11300F01CD08AEF1AD08AEF18D08AEF16D08AEF74
S113010014D00895000000000000000008950000CD
S1130110000000000000000000000000000008953E
S1130120F1DF8A958030E1F70895382F8AEFF8DF00
S11301308AEFF6DF8AEFF4DF8AEFF2DF3A953030A8
S1130140A9F708950E94A7000E94DA0008951DB837
S113015080EF84B908950E94A200FFCF91B39F70ED
S1130160807F892B81BB5F9A0E9487005F980895E6
S1130170CF93C62F811102C05E9801C05E9A8C2F66
S11301800E94AE008C2F8295807F0E94AE008DE28B
S11301900E949000CF91089561E080E00E94B80031
S11301A082E00E9495000895682F6C6080E00E94B0
S11301B0B800089580EF80BB80EC8AB984E10E9486
S11301C095005E9880E30E94AE008AE00E9495004C
S11301D080E30E94AE008AE00E94950080E30E94C2
S11301E0AE008AE00E94950080E20E94AE008DE29B
S11301F00E94900068E280E00E94B80080E00E94C3
S1130200D4000E94CC0066E080E00E94B80008950B
S1070210F894FFCF8C
S9030000FC
