:100000000C9456000C946B000C946B000C946B00D9
:100010000C946B000C946B000C946B000C946B00B4
:100020000C946B000C946B000C946B000C946B00A4
:100030000C946B000C946B000C946B000C946B0094
:100040000C946B000C946B000C946B000C946B0084
:100050000C946B000C946B000C946B000C946B0074
:100060000C946B000C946B000C946B000C946B0064
:100070000C946B000C9416020C946B000C946B00A7
:100080000C946B000C946B000C946B000C946B0044
:100090000C946B000C946B000C946B000C946B0034
:1000A0000C946B000C946B000C946B0011241FBE1D
:1000B000CFEFDAE0DEBFCDBF11E0A0E0B1E0E8E9CC
:1000C000FBE002C005900D92AE32B107D9F70E9455
:1000D000EB000C94CA050C9400008AEF1ED08AEF46
:1000E0001CD08AEF1AD08AEF18D08AEF16D08AEF88
:1000F00014D00895000000000000000008950000E2
:100100000000000000000000000000000000089552
:10011000F1DF8A958030E1F70895382F8AEFF8DF14
:100120008AEFF6DF8AEFF4DF8AEFF2DF3A953030BC
:10013000A9F708950E94C1000E94CD010895EF9291
:10014000FF920F931F93CF937C018B01C42F80E00C
:100150000E94C7010E94BF01C7010E94050260E022
:1001600081E00E94FB01C8010E940502CC2319F026
:100170008C2F0E946D00CF911F910F91FF90EF90F7
:1001800008951DB880EF84B908950F931F93CF93FE
:10019000DF93C0E0D0E085B1282F2F70CE0182958B
:1001A0009295907F9827807F9827822B85B981E050
:1001B0000E948D00669B05C0FE01EE5FFE4F8081B0
:1001C00005C02196CC30D10531F780E0DF91CF9189
:1001D0001F910F910895CF93DF93CDB7DEB761974D
:1001E0000FB6F894DEBF0FBECDBF0E9433020E944F
:1001F0009A000E94C10010E00F2EFFED8F2EF02D0F
:100200000F2EF7E2AF2EF1E0BF2EF02DCE010196BA
:100210001C016894552451F80F2EFEE0CF2EF1E01A
:10022000DF2EF02D662463940F2EF1E2EF2EF1E025
:10023000FF2EF02D05C0162D03C010E001C010E008
:100240000E94C50090E0113049F120F0123009F40D
:100250004BC0F6CF8133910511F00097C1F40E9495
:1002600053021F928F921F928F93DF92CF923F92F1
:100270002F920E94E00240E0B10184E191E00E94EF
:100280009F000FB6F894DEBF0FBECDBFD9CF82332B
:10029000910589F2C397A1F6152DD2CF823391052E
:1002A00011F00097C1F40E947E021F928F921F925C
:1002B0008F93BF92AF923F922F920E94E00240E054
:1002C000B10184E191E00E949F000FB6F894DEBF77
:1002D0000FBECDBFB5CF8133910509F4AECFC39723
:1002E00009F0AECF152DACCF8333910511F00097F7
:1002F000F9F40E947E02782E0E9453021F928F9280
:100300001F927F921F928F921F928F93FF92EF9274
:100310003F922F920E94E00240E0B10184E191E01F
:100320000E949F000FB6F894DEBF0FBECDBF88CFEE
:100330008133910509F483CFC29709F081CF162D3F
:100340007FCF91B39F70807F892B81BB5F9A0E9482
:100350007F005F980895CF93C62F811102C05E98E9
:1003600001C05E9A8C2F0E94A1018C2F8295807F04
:100370000E94A1018DE20E948800CF91089561E062
:1003800080E00E94AB0182E00E948D000895682FFA
:100390006C6080E00E94AB01089580EF80BB80EC30
:1003A0008AB984E10E948D005E9880E30E94A101D9
:1003B0008AE00E948D0080E30E94A1018AE00E94F1
:1003C0008D0080E30E94A1018AE00E948D0080E2FE
:1003D0000E94A1018DE20E94880068E280E00E94F4
:1003E000AB0180E00E94C7010E94BF0166E080E08F
:1003F0000E94AB01089520E4829FC001112460682F
:10040000682B80E00E94AB010895CF93DF93FC013D
:100410006081662341F0EC01219681E00E94AB01EE
:1004200069916111FACFDF91CF9108951F920F92D8
:100430000FB60F9211242F938F939F9320917800E2
:100440008091790090E0982F8827820F911D9093DA
:100450000101809300019F918F912F910F900FBE0A
:100460000F901F901895ECE7F0E080818064808306
:10047000808189608083EAE7F0E080818760808303
:1004800080818062808380818860808380818068B1
:10049000808383E080937E001092D80078948081DE
:1004A000806480830895809100019091010122E68B
:1004B000289FA001299F500D11249A013695279558
:1004C0003695279536952795A5ECB0E20E94BD029A
:1004D000929582958F7089279F70892768EE73E0C7
:1004E000869F9001879F300D969F300D1124421BEF
:1004F000530B443F514008F0019608950E94530267
:100500002AE5829FC001112465E070E00E94A902E3
:10051000AB01405C5E4F9A01ADECBCEC0E94BD02A9
:10052000969587959695879596958795BC01660FC4
:10053000771F9C01220F331F220F331F220F331FFF
:10054000260F371F421B530B4530510508F001960B
:10055000089597FB072E16F4009407D077FD09D075
:100560000E94CC0207FC05D03EF4909581959F4FE8
:100570000895709561957F4F0895A29FB001B39F34
:10058000C001A39F700D811D1124911DB29F700D9C
:10059000811D1124911D0895AA1BBB1B51E107C0A9
:1005A000AA1FBB1FA617B70710F0A61BB70B881F03
:1005B000991F5A95A9F780959095BC01CD01089592
:1005C000AEE0B0E0E6EEF2E00C94A1050D891E89E4
:1005D00086E08C831A8309838FEF9FE79E838D8348
:1005E000AE01475E5F4F6F89788DCE0101960E9404
:1005F0000203EF81F885E00FF11F10822E96E4E0F0
:100600000C94BD05ABE0B0E0E8E0F3E00C9493059A
:100610006C017B018A01FC0117821682838181FFB4
:10062000CCC1CE0101963C01F6019381F70193FD07
:10063000859193FF81917F01882309F4BAC18532A6
:1006400039F493FD859193FF81917F01853229F4DF
:10065000B60190E00E94F904E7CF912C212C312CB7
:10066000FFE1F315D8F08B3279F038F4803279F06D
:100670008332A1F4232D20611DC08D3261F08033BF
:1006800069F4232D216016C0832D8260382EE32D5E
:10069000E4603E2E2AC0F32DF8601DC037FC2DC04B
:1006A00020ED280F2A3040F08E32B9F436FC81C19B
:1006B000232D2064322E19C036FE06C08AE0989E93
:1006C000200D1124922E11C0EAE02E9E200D11243F
:1006D000222EF32DF0623F2E08C08C3621F4832D9C
:1006E0008068382E02C0883641F4F70193FD859169
:1006F00093FF81917F018111B3CF982F9F7D9554F6
:10070000933028F40C5F1F4F9FE399830DC083360D
:1007100031F0833771F0833509F059C021C0F801F9
:10072000808189830E5F1F4F88248394912C53010D
:1007300013C02801F2E04F0E511CF801A080B180D7
:1007400036FE03C0692D70E002C06FEF7FEFC50178
:100750000E94EE044C018201F32DFF773F2E16C05C
:10076000280122E0420E511CF801A080B18036FE23
:1007700003C0692D70E002C06FEF7FEFC5010E94DA
:10078000E3044C01F32DF0683F2E820133FC1BC0C3
:10079000822D90E088169906B0F4B60180E290E0D0
:1007A0000E94F9042A94F4CFF50137FC859137FEB5
:1007B00081915F01B60190E00E94F90421102A9412
:1007C00021E0821A91088114910471F7E8C08436FF
:1007D00011F0893641F5F80137FE07C0608171815B
:1007E000828193810C5F1F4F08C060817181072E49
:1007F000000C880B990B0E5F1F4FF32DFF763F2ED9
:1008000097FF09C090958095709561957F4F8F4FA8
:100810009F4FF0683F2E2AE030E0A3010E9435058B
:10082000882E861845C0853731F4232D2F7EB22EB1
:100830002AE030E025C0932D997FB92E8F36C1F084
:1008400018F4883579F0B5C0803719F0883721F071
:10085000B0C0E92FE061BE2EB4FE0DC0FB2DF460E8
:10086000BF2E09C034FE0AC0292F2660B22E06C052
:1008700028E030E005C020E130E002C020E132E0B5
:10088000F801B7FE07C060817181828193810C5F9E
:100890001F4F06C06081718180E090E00E5F1F4FA6
:1008A000A3010E943505882E8618FB2DFF773F2E69
:1008B00036FE0DC0232D2E7FA22E891458F434FE4F
:1008C0000BC032FC09C0832D8E7EA82E05C0B82C2B
:1008D000A32C03C0B82C01C0B92CA4FE0FC0FE018C
:1008E000E80DF11D8081803321F49A2D997EA92E87
:1008F00009C0A2FE06C0B394B39404C08A2D8678C2
:1009000009F0B394A3FC11C0A0FE06C0B21488F491
:10091000280C922C9B180EC0B21460F4B60180E231
:1009200090E00E94F904B394F7CFB21418F42B1896
:1009300002C0982C212CA4FE10C0B60180E390E0E8
:100940000E94F904A2FE17C0A1FC03C088E790E052
:1009500002C088E590E0B6010CC08A2D867859F077
:10096000A1FE02C08BE201C080E2A7FC8DE2B601CD
:1009700090E00E94F904891438F4B60180E390E015
:100980000E94F9049A94F7CF8A94F301E80DF11DBF
:100990008081B60190E00E94F9048110F5CF2220F9
:1009A00009F442CEB60180E290E00E94F9042A9454
:1009B000F6CFF6018681978102C08FEF9FEF2B96CD
:1009C000E2E10C94AF05FC0105906150704001100C
:1009D000D8F7809590958E0F9F1F0895FC01615068
:1009E000704001900110D8F7809590958E0F9F1F51
:1009F00008950F931F93CF93DF93FB01238121FD74
:100A000003C08FEF9FEF2CC022FF16C04681578195
:100A1000248135814217530744F4A081B1819D019F
:100A20002F5F3F4F318320838C93268137812F5F47
:100A30003F4F3783268314C08B01EC01FB010084F8
:100A4000F185E02D0995892BE1F6D80116968D9157
:100A50009C911797019617969C938E931697CE01AB
:100A6000DF91CF911F910F910895FA01AA272830A5
:100A700051F1203181F1E8946F936E7F6E5F7F4F6B
:100A80008F4F9F4FAF4FB1E03ED0B4E03CD0670FE7
:100A9000781F891F9A1FA11D680F791F8A1F911D3A
:100AA000A11D6A0F711D811D911DA11D20D009F48A
:100AB00068943F912AE0269F11243019305D3193CC
:100AC000DEF6CF010895462F4770405D4193B3E0B5
:100AD0000FD0C9F7F6CF462F4F70405D4A3318F05C
:100AE000495D31FD4052419302D0A9F7EACFB4E00D
:100AF000A6959795879577956795BA95C9F70097C5
:100B00006105710508959B01AC010A2E0694579565
:100B1000479537952795BA95C9F7620F731F841FBC
:100B2000951FA01D08952F923F924F925F926F9252
:100B30007F928F929F92AF92BF92CF92DF92EF926D
:100B4000FF920F931F93CF93DF93CDB7DEB7CA1BEE
:100B5000DB0B0FB6F894DEBF0FBECDBF09942A8819
:100B6000398848885F846E847D848C849B84AA84C1
:100B7000B984C884DF80EE80FD800C811B81AA814E
:100B8000B981CE0FD11D0FB6F894DEBF0FBECDBF19
:080B9000ED010895F894FFCF78
:100B9800DD003134372A323538303336392325757C
:100BA8002563430054454D50455241545552453AEA
:0E0BB800002575256343202575256346000042
:00000001FF
